:020000040000FA
:0600000017EF06F01200EC
:0A0006000100620C00000001000080
:04001000B20000003A
:0C001400D9CFE6FFE1CFD9FFD950FC0F97
:10002000E96EFF0EDA20EA6EEE50ED1002E0000EEF
:1000300001D0010EE8B08D80E8A08D908D948D8266
:1000400000000000FE0EDB508C6E8D92080EE66EF6
:1000500025EC06F0E552E552E7CFD9FF1200D9CFE3
:10006000E6FFE1CFD9FF010EE66EE66AFE0EDBCFBA
:10007000E6FFD0DFE552E552E552E552E7CFD9FF82
:100080001200D9CFE6FFE1CFD9FF000EE66EE66A97
:10009000FE0EDBCFE6FFBEDFE552E552E552E5524C
:1000A000E7CFD9FF1200010EE66ED9DFE552040E4C
:1000B000E66EF7EC05F0E5521200300EE66ECFDF8B
:1000C000E552080EE66EF7EC05F0E552380EE66EE6
:1000D000C6DFE5520C0EE66EC2DFE552060EE66E96
:1000E000BEDFE552080EE66E25EC06F0E55253EF52
:1000F00000F0D9CFE6FFE1CFD9FF020EE126DE6A9C
:10010000DD6ADECF00F0DDCF01F0FB0EDBCF02F0C9
:10011000FC0EDBCF03F001500318E8AE02D003342D
:1001200004D00250005C0350015815E2FD0EDBCFF5
:1001300000F0FE0EDBCF01F0DE500024E96EDD5052
:100140000120EA6EEF50E66E9CDFE552DF2A010ED9
:1001500001E3DB2AD6D7020EE15C02E2E16AE55256
:10016000E16EE552E7CFD9FF1200D9CFE6FFE1CF2C
:10017000D9FFFE0EDBCFE6FF84DFE552E552E7CF85
:10018000D9FF1200800EE66E6ADFE5521200C00E43
:10019000E66E65DFE5521200140EE66E60DFE55292
:1001A0001200D9CFE6FFE1CFD9FF100EE126D9CF5B
:1001B000E9FFDACFEAFF410EEE6E630EEE6E650EDA
:1001C000EE6E730EEE6EEE6E6F0EEE6E200EEE6E37
:1001D000500EEE6E650EEE6E720EEE6E6D0EEE6EE3
:1001E000690EEE6E740EEE6E690EEE6E640EEE6EBD
:1001F0006F0EEE6E58DF100EE66EE66AD9CFE6FFA0
:10020000DACFE6FF76DFE552E552E552E552100E11
:10021000E15C02E2E16AE552E16EE552E7CFD9FF27
:100220001200D9CFE6FFE1CFD9FF0D0EE126D9CFDD
:10023000E9FFDACFEAFF410EEE6E630EEE6E650E59
:10024000EE6E730EEE6EEE6E6F0EEE6E200EEE6EB6
:100250004E0EEE6E650EEE6E670EEE6E610EEE6E7B
:10026000640EEE6E6F0EEE6E1EDF0D0EE66EE66A2B
:10027000D9CFE6FFDACFE6FF3CDFE552E552E552A3
:10028000E5520D0EE15C02E2E16AE552E16EE552F3
:10029000E7CFD9FF1200D9CFE6FFE1CFD9FF200E7B
:1002A000E126D9CFE9FFDACFEAFF430EEE6E6F0EFB
:1002B000EE6E6E0EEE6E740EEE6E720EEE6E2E0E14
:1002C000EE6E200EEE6E640EEE6E650EEE6E200E7D
:1002D000EE6E610EEE6E630EEE6E650EEE6E730EDA
:1002E000EE6EEE6E6F0EEE6ED950100FE96EDACF35
:1002F000EAFF310EEE6E430EEE6E610EEE6E640E90
:10030000EE6E200EEE6E320EEE6E440EEE6E650E4A
:10031000EE6E6C0EEE6E200EEE6E330EEE6E450E31
:10032000EE6E6E0EEE6E740EEE6E720EEE6E610E70
:10033000EE6EB9DE27DF100EE66EE66AD9CFE6FF75
:10034000DACFE6FFD6DEE552E552E552E5521FDF91
:10035000100EE66EE66AD950100FE66E000EDA2037
:10036000E66EC7DEE552E552E552E552200EE15C4D
:1003700002E2E16AE552E16EE552E7CFD9FF1200F1
:10038000D9CFE6FFE1CFD9FF0F0EE126D9CFE9FFA4
:10039000DACFEAFF440EEE6E690EEE6E670EEE6E79
:1003A000690EEE6E740EEE6E650EEE6E200EEE6E43
:1003B000610EEE6E200EEE6E730EEE6E650EEE6E3C
:1003C0006E0EEE6E680EEE6E610EEE6E3A0EEE6E14
:1003D0006ADED8DE0F0EE66EE66AD9CFE6FFDACF28
:1003E000E6FF87DEE552E552E552E5520F0EE15C8D
:1003F00002E2E16AE552E16EE552E7CFD9FF120071
:100400008A888A9A8A9C8A9E81A604D081B6FED761
:10041000010E68D081A404D081B4FED7020E62D050
:1004200081A204D081B2FED7030E5CD081A004D09B
:1004300081B0FED7410E56D08A988A8A8A9C8A9EBD
:1004400081A604D081B6FED7040E4CD081A404D07E
:1004500081B4FED7050E46D081A204D081B2FED76A
:10046000060E40D081A004D081B0FED7420E3AD013
:100470008A988A9A8A8C8A9E81A604D081B6FED7F1
:10048000070E30D081A404D081B4FED7080E2AD044
:1004900081A204D081B2FED7090E24D081A004D05D
:1004A00081B0FED7430E1ED08A988A9A8A9C8A8E83
:1004B00081A604D081B6FED72A0E14D081A404D020
:1004C00081B4FED7000E0ED081A204D081B2FED737
:1004D000230E08D081A004D081B0FED7440E02D0F4
:1004E0004B0E00D01200D9CFE6FFE1CFD9FF030EAB
:1004F000E126DE52800EDD6E140EF36E020EF3CF97
:10050000DBFF8B80DBCFE6FF25EC06F0E5528B901E
:10051000020EDBCFE6FF25EC06F0E552010EDBCF45
:10052000E6FFFE0EDB50800DF350E552E714DF6E60
:10053000DF44010BDF6EDF50E8B08B80E8A08B90CA
:10054000020EDBCFE6FF25EC06F0E552010EDBCF15
:10055000E6FFFE0EDB50400DF350E552E714DF6E70
:10056000DF44010BDF6EDF50E8B08B80E8A08B909A
:10057000020EDBCFE6FF25EC06F0E552010EDBCFE5
:10058000E6FFFE0EDB50200DF350E552E714DF6E60
:10059000DF44010BDF6EDF50E8B08B80E8A08B906A
:1005A000020EDBCFE6FF25EC06F0E552010EDBCFB5
:1005B000E6FFFE0EDB38F00BE552E714DF6EDF449A
:1005C000010BDF6EDF50E8B08B80E8A08B90020E4D
:1005D000DBCFE6FF25EC06F0E552010EDBCFE6FFB0
:1005E000FE0EDB50080DF350E552E714DF6EDF44DA
:1005F000010BDF6EDF50E8B08B80E8A08B90020E1D
:10060000DBCFE6FF25EC06F0E552010EDBCFE6FF7F
:10061000FE0EDB50040DF350E552E714DF6EDF44AD
:10062000010BDF6EDF50E8B08B80E8A08B90020EEC
:10063000DBCFE6FF25EC06F0E552010EDBCFE6FF4F
:10064000FE0EDB50E824E552E714DF6EDF44010BB9
:10065000DF6EDF50E8B08B80E8A08B90020EDBCF1E
:10066000E6FF25EC06F0E552010EDBCFE6FFFE0EBD
:10067000DB50E552E714DF6EDF44010BDF6EDF5025
:10068000E8B08B80E8A08B90020EDBCFE6FF25EC74
:1006900006F0E5528B80140EE66E25EC06F0E5526E
:1006A000030EE15C02E2E16AE552E16EE552E7CF5A
:1006B000D9FF1200D9CFE6FFE1CFD9FF020EE12624
:1006C000DE6ADD6ADECF00F0DDCF01F0FB0EDBCFAE
:1006D00002F0FC0EDBCF03F001500318E8AE02D0AD
:1006E000033404D00250005C0350015815E2FD0EA3
:1006F000DBCF00F0FE0EDBCF01F0DE500024E96E10
:10070000DD500120EA6EEF50E66EEDDEE552DF2AA5
:10071000010E01E3DB2AD6D70D0EE66EE4DEE552CC
:10072000020EE15C02E2E16AE552E16EE552E7CFDA
:10073000D9FF1200D9CFE6FFE1CFD9FF130EE12692
:10074000D9CFE9FFDACFEAFF540EEE6E650EEE6EFA
:100750006E0EEE6E740EEE6E610EEE6E740EEE6E3A
:10076000690EEE6E760EEE6E610EEE6E200EEE6E81
:10077000640EEE6E650EEE6E200EEE6E6C0EEE6E7C
:100780006F0EEE6E670EEE6E690EEE6E6E0EEE6E14
:10079000EE6A120EE66EE66AD9CFE6FFDACFE6FF22
:1007A00089DFE552E552E552E552130EE15C02E2C3
:1007B000E16AE552E16EE552E7CFD9FF1200D9CFE9
:1007C000E6FFE1CFD9FF1B0EE126D9CFE9FFDACF53
:1007D000EAFF550EEE6E730EEE6E750EEE6E610E46
:1007E000EE6E720EEE6E690EEE6E6F0EEE6E200EF7
:1007F000EE6E580EEE6E200EEE6E630EEE6E6F0E07
:10080000EE6E6E0EEE6E730EEE6E650EEE6E670E93
:10081000EE6E750EEE6E690EEE6E750EEE6E200EBD
:10082000EE6E610EEE6E630EEE6E650EEE6E730E84
:10083000EE6EEE6E6F0EEE6EEE6AFE0EDB50300F59
:10084000E76E080EE7CFDBFF1A0EE66EE66AD9CF39
:10085000E6FFDACFE6FF2EDFE552E552E552E5523C
:100860001B0EE15C02E2E16AE552E16EE552E7CF80
:10087000D9FF1200D9CFE6FFE1CFD9FFFE0EDB5042
:100880004B0823E0FD0EDB040BE1FD0EDBCFE6FFA2
:10089000FE0EDBCFE6FF20D8E552E55219D015D089
:1008A000FD0EDB5002080AE1010EE66EFE0EDBCF04
:1008B000E6FF2DD8E552E5520BD007D0FD0EDB50F8
:1008C000030803E1E8DC010E03D0FD0EDB5000D08D
:1008D000E552E7CFD9FF1200D9CFE6FFE1CFD9FF2C
:1008E000FE0EDB50030A07E0010A04E0030A01E000
:1008F00007D006D005D00101006B42DD020E03D007
:10090000FD0EDB5000D0E552E7CFD9FF1200D9CF62
:10091000E6FFE1CFD9FF030EE126FE0EDB502A08E9
:100920006AE0FE0EDB5023083CE031DCDE6ADD6A63
:10093000DECF00F0DDCF01F000C102F0036A02BE9D
:10094000036801500318E8AE02D0033404D002500B
:10095000005C0350015806E21FDCDF2A010E01E3B0
:10096000DB2AE6D7FD0EDB5006E02A0EE66EB5EC7C
:1009700000F0E55207D0FE0EDB50300FE66EB5EC0E
:1009800000F0E55200C1E9FFEA6AE9BEEA68B20E8A
:10099000E926010EEA22FE0EDBCFEFFF0101002B5C
:1009A0002AD000C1E9FFEA6AE9BEEA68B20EE92688
:1009B000010EEA22EF6AB20EE66E010EE66E29D84B
:1009C000E552E552E76E020EE7CFDBFFDBCF00F02A
:1009D00000340DE2D1EC00F0020EDB5002E1000E1B
:1009E00002D0020EDB50E66EEADEE55202D019DCE0
:1009F000A1DE030E02D0020E00D0006E030EE15CF9
:100A000002E2E16AE552E16E0050E552E7CFD9FF1C
:100A10001200D9CFE6FFE1CFD9FF020EE126DE6A50
:100A2000DD6ADECF00F0DDCF01F001C102F0036A24
:100A300002BE036801500318E8AE02D0033404D0AC
:100A40000250005C0350015825E2B20EE66E010E22
:100A5000E66EDECF00F0DDCF01F0040ED890003658
:100A60000136E806FBE1020E0026010E012200C05D
:100A7000E6FF01C0E6FFD7EC05F0E552E552E5528E
:100A8000E552000902E1DF5007D0DF2A010E01E341
:100A9000DB2AC7D7FF0E00D0006E020EE15C02E237
:100AA000E16AE552E16E0050E552E7CFD9FF12004E
:100AB0000F0EC16E956AF80E966E0F0E936E946AC5
:100AC0001200D9CFE6FFE1CFD9FF020EE126DE52B8
:100AD000010EDD6EEDDF5DEC00F04BEC01F090DC23
:100AE000DF6E010EDBCFE6FFDFCFE6FFC3DEE552B0
:100AF000E552E76E010EE7CFDBFFF1D7020EE15CB6
:100B000002E2E16AE552E16EE552E7CFD9FF120059
:100B1000060EF66E000EF76E000EF86E010109006B
:100B2000F550C76F0900F550C86F03E1C76701D0E2
:100B30003DD00900F550C26F0900F550C36F0900A0
:100B4000F550C46F09000900F550E96E0900F55031
:100B5000EA6E090009000900F550C56F0900F5505B
:100B6000C66F09000900F6CFC9F1F7CFCAF1F8CF77
:100B7000CBF1C2C1F6FFC3C1F7FFC4C1F8FF010149
:100B8000C55302E1C65307E00900F550EE6EC507F4
:100B9000F8E2C607F9D7C9C1F6FFCAC1F7FFCBC152
:0E0BA000F8FF0101C707000EC85BBFD71200A7
:020BAE00D9CF9D
:100BB000E6FFDACFE6FFFA0EE3CFD9FFFB0EE3CF75
:100BC000DAFFFC0EE3CFE9FFFD0EE3CFEAFFDE50D4
:100BD000EF5C02E1EE66FBD7F36EFF0EE3CFDAFFC8
:0E0BE000E552FF0EE3CFD9FFE552F3501200AD
:020BEE00FF0EF8
:100BF000E350066E480E01D04C0EE76EE72EFED78E
:0E0C0000E76AE72EFED7062EF7D70000120097
:020C0E00000ED6
:100C1000F36E00EE00F0080E01D81200EA6002D078
:0E0C2000EE6AFCD7F350E9601200EE6AFCD7D2
:020C2E0013EEC3
:100C300000F023EE00F0F86A059C88EC05F030EC3B
:0A0C400006F061EC05F0FBD712008E
:060C4A00FF0EE350E84E2E
:100C50001200000000D000D000D0E82EFAD7120019
:020C6000120080
:0E0C620000010102030405060000000000006E
:100C70000000000000000000000000000000000074
:100C80000000000000000000000000000000000064
:100C90000000000000000000000000000000000054
:100CA0000000000000000000000000000000000044
:100CB0000000000000000000000000000000000034
:100CC0000000000000000000000000000000000024
:100CD0000000000000000000000000000000000014
:100CE0000000000000000000000000000000000004
:100CF00000000000000000000000000000000000F4
:100D000000000000000000000000000000000000E3
:040D100000000000DF
:020000040030CA
:010001000CF2
:010003001EDE
:0100050001F9
:00000001FF
