:020000040000FA
:0600000022EF03F01200E4
:0A0006000100780600006A00000007
:0400100001000000EB
:0C001400D9CFE6FFE1CFD9FFD950FC0F97
:10002000E96EFF0EDA20EA6EEE50ED1002E0000EEF
:1000300001D0010EE8B08D80E8A08D908D948D8266
:1000400000000000FE0EDB508C6E8D92080EE66EF6
:1000500030EC03F0E552E552E7CFD9FF1200D9CFDB
:10006000E6FFE1CFD9FF010EE66EE66AFE0EDBCFBA
:10007000E6FFD0DFE552E552E552E552E7CFD9FF82
:100080001200D9CFE6FFE1CFD9FF000EE66EE66A97
:10009000FE0EDBCFE6FFBEDFE552E552E552E5524C
:1000A000E7CFD9FF1200010EE66ED9DFE552040E4C
:1000B000E66E02EC03F0E5521200300EE66ECFDF82
:1000C000E552080EE66E02EC03F0E552380EE66EDD
:1000D000C6DFE5520C0EE66EC2DFE552060EE66E96
:1000E000BEDFE552080EE66E30EC03F0E55253EF4A
:1000F00000F0D9CFE6FFE1CFD9FF020EE126DE6A9C
:10010000DD6ADECF00F0DDCF01F0FB0EDBCF02F0C9
:10011000FC0EDBCF03F001500318E8AE02D003342D
:1001200004D00250005C0350015815E2FD0EDBCFF5
:1001300000F0FE0EDBCF01F0DE500024E96EDD5052
:100140000120EA6EEF50E66E9CDFE552DF2A010ED9
:1001500001E3DB2AD6D7020EE15C02E2E16AE55256
:10016000E16EE552E7CFD9FF1200D9CFE6FFE1CF2C
:10017000D9FFFE0EDBCFE6FF84DFE552E552E7CF85
:10018000D9FF1200800EE66E6ADFE5521200C00E43
:10019000E66E65DFE5521200140EE66E60DFE55292
:1001A0001200D9CFE6FFE1CFD9FF200EE126D9CF4B
:1001B000E9FFDACFEAFF430EEE6E6F0EEE6E6E0EC3
:1001C000EE6E740EEE6E720EEE6E2E0EEE6E200E53
:1001D000EE6E640EEE6E650EEE6E200EEE6E610E2D
:1001E000EE6E630EEE6E650EEE6E730EEE6EEE6EDE
:1001F0006F0EEE6ED950100FE96EDACFEAFF310EB6
:10020000EE6E430EEE6E610EEE6E640EEE6E200E1E
:10021000EE6E320EEE6E440EEE6E650EEE6E6C0EEF
:10022000EE6E200EEE6E330EEE6E450EEE6E6E0E20
:10023000EE6E740EEE6E720EEE6E610EEE6E33DFCB
:10024000A1DF100EE66EE66AD9CFE6FFDACFE6FF51
:1002500050DFE552E552E552E55299DF100EE66EA9
:10026000E66AD950100FE66E000EDA20E66E41DF26
:10027000E552E552E552E552200EE15C02E2E16A08
:10028000E552E16EE552E7CFD9FF1200D9CFE6FF84
:10029000E1CFD9FF0F0EE126D9CFE9FFDACFEAFF90
:1002A000440EEE6E690EEE6E670EEE6E690EEE6E29
:1002B000740EEE6E650EEE6E200EEE6E610EEE6E3C
:1002C000200EEE6E730EEE6E650EEE6E6E0EEE6E20
:1002D000680EEE6E610EEE6E3A0EEE6EE4DE52DFEA
:1002E0000F0EE66EE66AD9CFE6FFDACFE6FF01DF52
:1002F000E552E552E552E5520F0EE15C02E2E16A99
:10030000E552E16EE552E7CFD9FF12008A888A9A5A
:100310008A9C8A9E81A604D081B6FED7010E68D041
:1003200081A404D081B4FED7020E62D081A204D091
:1003300081B2FED7030E5CD081A004D081B0FED77D
:10034000410E56D08A988A8A8A9C8A9E81A604D0B9
:1003500081B6FED7040E4CD081A404D081B4FED760
:10036000050E46D081A204D081B2FED7060E40D041
:1003700081A004D081B0FED7420E3AD08A988A9AE2
:100380008A8C8A9E81A604D081B6FED7070E30D013
:1003900081A404D081B4FED7080E2AD081A204D053
:1003A00081B2FED7090E24D081A004D081B0FED73F
:1003B000430E1ED08A988A9A8A9C8A8E81A604D07F
:1003C00081B6FED72A0E14D081A404D081B4FED702
:1003D000000E0ED081A204D081B2FED7230E08D029
:1003E00081A004D081B0FED7440E02D04B0E00D0C5
:1003F0001200D9CFE6FFE1CFD9FFFE0EDB504B084C
:100400001BE0FD0EDB040BE1FD0EDBCFE6FFFE0E75
:10041000DBCFE6FF18D8E552E55211D00DD0FD0E26
:10042000DB50020809E1010EE66EFE0EDBCFE6FFAF
:1004300025D8E552E55203D0FD0EDB5000D0E55241
:10044000E7CFD9FF1200D9CFE6FFE1CFD9FFFE0EEB
:10045000DB50030A07E0010A04E0030A01E007D0C9
:1004600006D005D000016A6B11DF020E03D0FD0E2D
:10047000DB5000D0E552E7CFD9FF1200D9CFE6FF1D
:10048000E1CFD9FF020EE126FE0EDB502A0831E053
:10049000FE0EDB5023082DE07ADEDE6ADD6ADECF59
:1004A00000F0DDCF01F06AC002F0036A02BE03680B
:1004B00001500318E8AE02D0033404D00250005CAF
:1004C0000350015806E268DEDF2A010E01E3DB2A51
:1004D000E6D7FD0EDB5005E02A0EE66E46DEE5525D
:1004E00006D0FE0EDB50300FE66E3FDEE552000117
:1004F0006A2B020E006EE15C03E200D0E16AE55275
:10050000E16E0050E552E7CFD9FF12000F0EC16E29
:10051000956AF80E966E0F0E936E1200D9CFE6FF15
:10052000E1CFD9FF020EE126DE52010EDD6EEEDFD5
:10053000C4DD37DEEBDEDF6E010EDBCFE6FFDFCFA3
:10054000E6FF57DFE552E552E76E010EE7CFDBFF2E
:10055000F1D7020EE15C02E2E16AE552E16EE5529A
:06056000E7CFD9FF1200F5
:0A056600060EF66E000EF76E000E92
:10057000F86E00010900F550656F0900F550666FCF
:1005800003E1656701D03DD00900F550606F0900B7
:10059000F550616F0900F550626F09000900F550D0
:1005A000E96E0900F550EA6E090009000900F550EE
:1005B000636F0900F550646F09000900F6CF67F01A
:1005C000F7CF68F0F8CF69F060C0F6FF61C0F7FFC1
:1005D00062C0F8FF0001635302E1645307E00900C1
:1005E000F550EE6E6307F8E26407F9D767C0F6FFCF
:1005F00068C0F7FF69C0F8FF00016507000E665B81
:04060000BFD712004E
:0C060400FF0EE350066E480E01D04C0EB5
:10061000E76EE72EFED7E76AE72EFED7062EF7D75E
:0406200000001200C4
:0C062400000EF36E00EE00F0080E01D88E
:100630001200EA6002D0EE6AFCD7F350E9601200C3
:04064000EE6AFCD78B
:0C06440013EE00F023EE00F0F86A059CB5
:10065000B3EC02F03BEC03F08EEC02F0FBD712009F
:10066000FF0EE350E84E1200000000D000D000D092
:06067000E82EFAD712008B
:02067600120070
:010678000081
:020000040030CA
:010001000CF2
:010003001EDE
:0100050001F9
:00000001FF
