:020000040000FA
:06000000B5EF01F0120053
:020006000000F8
:08000800D9CFE6FFE1CFD9FFDB
:10001000D950FC0FE96EFF0EDA20EA6EEE50ED10BB
:1000200002E0000E01D0010EE8B08D80E8A08D90B6
:100030008D948D8200000000FE0EDB508C6E8D9240
:10004000080EE66EC3EC01F0E552E552E7CFD9FFAA
:100050001200D9CFE6FFE1CFD9FF010EE66EE66AC6
:10006000FE0EDBCFE6FFD0DFE552E552E552E5526A
:10007000E7CFD9FF1200D9CFE6FFE1CFD9FF000EBD
:10008000E66EE66AFE0EDBCFE6FFBEDFE552E55226
:10009000E552E552E7CFD9FF1200010EE66ED9DF37
:1000A000E552040EE66E95EC01F0E5521200300EBA
:1000B000E66ECFDFE552080EE66E95EC01F0E552F4
:1000C000380EE66EC6DFE5520C0EE66EC2DFE55274
:1000D000060EE66EBEDFE552080EE66EC3EC01F0DA
:1000E000E5524DEF00F0D9CFE6FFE1CFD9FF020E88
:1000F000E126DE6ADD6ADECF00F0DDCF01F0FB0E27
:10010000DBCF02F0FC0EDBCF03F001500318E8AEAA
:1001100002D0033404D00250005C0350015815E2B1
:10012000FD0EDBCF00F0FE0EDBCF01F0DE50002431
:10013000E96EDD500120EA6EEF50E66E9CDFE5527D
:10014000DF2A010E01E3DB2AD6D7020EE15C02E2D0
:10015000E16AE552E16EE552E7CFD9FF1200D9CF4F
:10016000E6FFE1CFD9FFFE0EDBCFE6FF84DFE552ED
:10017000E552E7CFD9FF1200800EE66E6ADFE55246
:100180001200C00EE66E65DFE5521200D9CFE6FF21
:10019000E1CFD9FF200EE126D9CFE9FFDACFEAFF80
:1001A000430EEE6E6F0EEE6E6E0EEE6E740EEE6E13
:1001B000720EEE6E2E0EEE6E200EEE6E640EEE6E73
:1001C000650EEE6E200EEE6E610EEE6E630EEE6E3E
:1001D000650EEE6E730EEE6EEE6E6F0EEE6ED95015
:1001E000100FE96EDACFEAFF310EEE6E430EEE6EBF
:1001F000610EEE6E640EEE6E200EEE6E320EEE6E40
:10020000440EEE6E650EEE6E6C0EEE6E200EEE6E11
:10021000330EEE6E450EEE6E6E0EEE6E740EEE6EDC
:10022000720EEE6E610EEE6E38DFA6DF100EE66E19
:10023000E66AD9CFE6FFDACFE6FF55DFE552E552B1
:10024000E552E5529EDF100EE66EE66AD950100FB9
:10025000E66E000EDA20E66E46DFE552E552E55224
:10026000E552200EE15C02E2E16AE552E16EE55200
:10027000E7CFD9FF12000F0EC16E956AF80E966E89
:0C0280001200F9DF14DF82DFFFD712004C
:04028C00060EF66EF6
:10029000000EF76E000EF86E00010900F550656F54
:1002A0000900F550666F03E1656701D03DD0090094
:1002B000F550606F0900F550616F0900F550626FED
:1002C00009000900F550E96E0900F550EA6E0900D1
:1002D00009000900F550636F0900F550646F0900CB
:1002E0000900F6CF67F0F7CF68F0F8CF69F060C08B
:1002F000F6FF61C0F7FF62C0F8FF0001635302E13F
:10030000645307E00900F550EE6E6307F8E26407F6
:10031000F9D767C0F6FF68C0F7FF69C0F8FF0001B2
:0A0320006507000E665BBFD71200F0
:06032A00FF0EE350066E19
:10033000480E01D04C0EE76EE72EFED7E76AE72E97
:0A034000FED7062EF7D700001200CA
:06034A00000EF36E00EE50
:1003500000F0080E01D81200EA6002D0EE6AFCD765
:0A036000F350E9601200EE6AFCD7CA
:06036A0013EE00F023EE8B
:1003700000F0F86A059C46EC01F0CEEC01F041EC8F
:0603800001F0FBD71200A2
:0A038600FF0EE350E84E12000000E5
:0C03900000D000D000D0E82EFAD71200F8
:02039C0012004D
:020000040030CA
:010001000CF2
:010003001EDE
:0100050001F9
:00000001FF
