:020000040000FA
:0600000001EF0CF01200FC
:0A00060001003618000000010000A0
:04001000BD0000002F
:0C001400D9CFE6FFE1CFD9FFD950FC0F97
:10002000E96EFF0EDA20EA6EEE50ED1002E0000EEF
:1000300001D0010EE8B08D80E8A08D908D948D8266
:1000400000000000FE0EDB508C6E8D92080EE66EF6
:100050000FEC0CF0E552E552E7CFD9FF1200D9CFF3
:10006000E6FFE1CFD9FF010EE66EE66AFE0EDBCFBA
:10007000E6FFD0DFE552E552E552E552E7CFD9FF82
:100080001200D9CFE6FFE1CFD9FF000EE66EE66A97
:10009000FE0EDBCFE6FFBEDFE552E552E552E5524C
:1000A000E7CFD9FF1200010EE66ED9DFE552040E4C
:1000B000E66EE1EC0BF0E5521200300EE66ECFDF9B
:1000C000E552080EE66EE1EC0BF0E552380EE66EF6
:1000D000C6DFE5520C0EE66EC2DFE552060EE66E96
:1000E000BEDFE552080EE66E0FEC0CF0E55253EF62
:1000F00000F0D9CFE6FFE1CFD9FF020EE126DE6A9C
:10010000DD6ADECF00F0DDCF01F0FB0EDBCF02F0C9
:10011000FC0EDBCF03F001500318E8AE02D003342D
:1001200004D00250005C0350015815E2FD0EDBCFF5
:1001300000F0FE0EDBCF01F0DE500024E96EDD5052
:100140000120EA6EEF50E66E9CDFE552DF2A010ED9
:1001500001E3DB2AD6D7020EE15C02E2E16AE55256
:10016000E16EE552E7CFD9FF1200D9CFE6FFE1CF2C
:10017000D9FFFE0EDBCFE6FF84DFE552E552E7CF85
:10018000D9FF1200800EE66E6ADFE5521200C00E43
:10019000E66E65DFE5521200140EE66E60DFE55292
:1001A0001200D9CFE6FFE1CFD9FF100EE126D9CF5B
:1001B000E9FFDACFEAFF410EEE6E630EEE6E650EDA
:1001C000EE6E730EEE6EEE6E6F0EEE6E200EEE6E37
:1001D000500EEE6E650EEE6E720EEE6E6D0EEE6EE3
:1001E000690EEE6E740EEE6E690EEE6E640EEE6EBD
:1001F0006F0EEE6E58DF100EE66EE66AD9CFE6FFA0
:10020000DACFE6FF76DFE552E552E552E552100E11
:10021000E15C02E2E16AE552E16EE552E7CFD9FF27
:100220001200D9CFE6FFE1CFD9FF0D0EE126D9CFDD
:10023000E9FFDACFEAFF410EEE6E630EEE6E650E59
:10024000EE6E730EEE6EEE6E6F0EEE6E200EEE6EB6
:100250004E0EEE6E650EEE6E670EEE6E610EEE6E7B
:10026000640EEE6E6F0EEE6E1EDF0D0EE66EE66A2B
:10027000D9CFE6FFDACFE6FF3CDFE552E552E552A3
:10028000E5520D0EE15C02E2E16AE552E16EE552F3
:10029000E7CFD9FF1200D9CFE6FFE1CFD9FF200E7B
:1002A000E126D9CFE9FFDACFEAFF430EEE6E6F0EFB
:1002B000EE6E6E0EEE6E740EEE6E720EEE6E2E0E14
:1002C000EE6E200EEE6E640EEE6E650EEE6E200E7D
:1002D000EE6E610EEE6E630EEE6E650EEE6E730EDA
:1002E000EE6EEE6E6F0EEE6ED950100FE96EDACF35
:1002F000EAFF310EEE6E430EEE6E610EEE6E640E90
:10030000EE6E200EEE6E320EEE6E440EEE6E650E4A
:10031000EE6E6C0EEE6E200EEE6E330EEE6E450E31
:10032000EE6E6E0EEE6E740EEE6E720EEE6E610E70
:10033000EE6EB9DE27DF100EE66EE66AD9CFE6FF75
:10034000DACFE6FFD6DEE552E552E552E5521FDF91
:10035000100EE66EE66AD950100FE66E000EDA2037
:10036000E66EC7DEE552E552E552E552200EE15C4D
:1003700002E2E16AE552E16EE552E7CFD9FF1200F1
:10038000D9CFE6FFE1CFD9FF0F0EE126D9CFE9FFA4
:10039000DACFEAFF440EEE6E690EEE6E670EEE6E79
:1003A000690EEE6E740EEE6E650EEE6E200EEE6E43
:1003B000610EEE6E200EEE6E730EEE6E650EEE6E3C
:1003C0006E0EEE6E680EEE6E610EEE6E3A0EEE6E14
:1003D0006ADED8DE0F0EE66EE66AD9CFE6FFDACF28
:1003E000E6FF87DEE552E552E552E5520F0EE15C8D
:1003F00002E2E16AE552E16EE552E7CFD9FF120071
:10040000D9CFE6FFE1CFD9FF110EE126D9CFE9FF21
:10041000DACFEAFF430EEE6E610EEE6E640EEE6E04
:10042000610EEE6E730EEE6E740EEE6E720EEE6E6A
:100430006F0EEE6E200EEE6E750EEE6E730EEE6E9D
:10044000750EEE6E610EEE6E720EEE6E690EEE6E53
:100450006F0EEE6EEE6A27DE95DE100EE66EE66A31
:10046000D9CFE6FFDACFE6FF44DEE552E552E552AA
:10047000E552110EE15C02E2E16AE552E16EE552FD
:10048000E7CFD9FF1200D9CFE6FFE1CFD9FF150E94
:10049000E126D9CFE9FFDACFEAFF550EEE6E730EF3
:1004A000EE6E750EEE6E610EEE6E720EEE6E690EF3
:1004B000EE6E6F0EEE6E200EEE6E580EEE6EEE6A63
:1004C000D9500A0FE96EDACFEAFF630EEE6E610EC5
:1004D000EE6E640EEE6E610EEE6E730EEE6E740EC8
:1004E000EE6E720EEE6E610EEE6E640EEE6E6F0EBE
:1004F000EE6EEE6AFE0EDB50300FE76E080EE7CFB1
:10050000DBFFD1DD3FDE090EE66EE66AD9CFE6FFFE
:10051000DACFE6FFEEDDE552E552E552E55237DE91
:100520000A0EE66EE66AD9500A0FE66E000EDA2071
:10053000E66EDFDDE552E552E552E552150EE15C6F
:1005400002E2E16AE552E16EE552E7CFD9FF12001F
:10055000D9CFE6FFE1CFD9FF0E0EE126D9CFE9FFD3
:10056000DACFEAFF4D0EEE6E650EEE6E6D0EEE6E9C
:100570006F0EEE6E720EEE6E690EEE6E610EEE6E28
:10058000200EEE6E630EEE6E680EEE6E650EEE6E73
:10059000690EEE6E610EEE6EEE6A85DDF3DD0D0E18
:1005A000E66EE66AD9CFE6FFDACFE6FFA2DDE552D6
:1005B000E552E552E5520E0EE15C02E2E16AE552D7
:1005C000E16EE552E7CFD9FF1200D9CFE6FFE1CFC8
:1005D000D9FF110EE126D9CFE9FFDACFEAFF4E0E9F
:1005E000EE6E750EEE6E6D0EEE6E2E0EEE6E200E33
:1005F000EE6E640EEE6E6F0EEE6E200EEE6E750EEB
:10060000EE6E730EEE6E750EEE6E610EEE6E720E87
:10061000EE6E690EEE6E6F0EEE6E3A0EEE6EEE6AD6
:1006200042DDB0DD100EE66EE66AD9CFE6FFDACF26
:10063000E6FF5FDDE552E552E552E552110EE15C61
:1006400002E2E16AE552E16EE552E7CFD9FF12001E
:10065000D9CFE6FFE1CFD9FF0F0EE126D9CFE9FFD1
:10066000DACFEAFF4E0EEE6E650EEE6E6E0EEE6E99
:10067000680EEE6E750EEE6E6D0EEE6E200EEE6E68
:10068000750EEE6E730EEE6E750EEE6E610EEE6E04
:10069000720EEE6E690EEE6E6F0EEE6EEE6A03DD9A
:1006A00071DD0E0EE66EE66AD9CFE6FFDACFE6FF21
:1006B00020DDE552E552E552E5520F0EE15C02E223
:1006C000E16AE552E16EE552E7CFD9FF1200D9CFDA
:1006D000E6FFE1CFD9FF110EE126D9CFE9FFDACF4E
:1006E000EAFF550EEE6E730EEE6E750EEE6E610E37
:1006F000EE6E720EEE6E690EEE6E6F0EEE6E200EE8
:10070000EE6E690EEE6E6E0EEE6E760EEE6E610E93
:10071000EE6E6C0EEE6E690EEE6E640EEE6E6F0E89
:10072000EE6EEE6AC0DC2EDD100EE66EE66AD9CF04
:10073000E6FFDACFE6FFDDDCE552E552E552E552B1
:10074000110EE15C02E2E16AE552E16EE552E7CFAB
:10075000D9FF1200D9CFE6FFE1CFD9FF130EE12672
:10076000D9CFE9FFDACFEAFF550EEE6E730EEE6ECB
:10077000750EEE6E610EEE6E720EEE6E690EEE6E20
:100780006F0EEE6E200EEE6E580EEE6EEE6AD950C3
:100790000A0FE96EDACFEAFF640EEE6E650EEE6EBA
:1007A0006C0EEE6E650EEE6E740EEE6E610EEE6EFB
:1007B000640EEE6E6F0EEE6EEE6AFE0EDB50300FC4
:1007C000E76E080EE7CFDBFF6EDCDCDC090EE66EC1
:1007D000E66AD9CFE6FFDACFE6FF8BDCE552E552D9
:1007E000E552E552D4DC080EE66EE66AD9500A0FEF
:1007F000E66E000EDA20E66E7CDCE552E552E5524C
:10080000E552130EE15C02E2E16AE552E16EE55267
:10081000E7CFD9FF12008A888A9A8A9C8A9E81A68D
:1008200004D081B6FED7010E68D081A404D081B473
:10083000FED7020E62D081A204D081B2FED7030E91
:100840005CD081A004D081B0FED7410E56D08A98EA
:100850008A8A8A9C8A9E81A604D081B6FED7040E1D
:100860004CD081A404D081B4FED7050E46D081A21D
:1008700004D081B2FED7060E40D081A004D081B052
:10088000FED7420E3AD08A988A9A8A8C8A9E81A68E
:1008900004D081B6FED7070E30D081A404D081B435
:1008A000FED7080E2AD081A204D081B2FED7090E4D
:1008B00024D081A004D081B0FED7430E1ED08A98E8
:1008C0008A9A8A9C8A8E81A604D081B6FED72A0E87
:1008D00014D081A404D081B4FED7000E0ED081A222
:1008E00004D081B2FED7230E08D081A004D081B0FD
:1008F000FED7440E02D04B0E00D01200D9CFE6FF37
:10090000E1CFD9FF030EE126DE52800EDD6E140E1C
:10091000F36E020EF3CFDBFF8B80DBCFE6FF0FEC35
:100920000CF0E5528B90020EDBCFE6FF0FEC0CF0E3
:10093000E552010EDBCFE6FFFE0EDB50800DF350DB
:10094000E552E714DF6EDF44010BDF6EDF50E8B0E5
:100950008B80E8A08B90020EDBCFE6FF0FEC0CF053
:10096000E552010EDBCFE6FFFE0EDB50400DF350EB
:10097000E552E714DF6EDF44010BDF6EDF50E8B0B5
:100980008B80E8A08B90020EDBCFE6FF0FEC0CF023
:10099000E552010EDBCFE6FFFE0EDB50200DF350DB
:1009A000E552E714DF6EDF44010BDF6EDF50E8B085
:1009B0008B80E8A08B90020EDBCFE6FF0FEC0CF0F3
:1009C000E552010EDBCFE6FFFE0EDB38F00BE55201
:1009D000E714DF6EDF44010BDF6EDF50E8B08B8081
:1009E000E8A08B90020EDBCFE6FF0FEC0CF0E55297
:1009F000010EDBCFE6FFFE0EDB50080DF350E55293
:100A0000E714DF6EDF44010BDF6EDF50E8B08B8050
:100A1000E8A08B90020EDBCFE6FF0FEC0CF0E55266
:100A2000010EDBCFE6FFFE0EDB50040DF350E55266
:100A3000E714DF6EDF44010BDF6EDF50E8B08B8020
:100A4000E8A08B90020EDBCFE6FF0FEC0CF0E55236
:100A5000010EDBCFE6FFFE0EDB50E824E552E71483
:100A6000DF6EDF44010BDF6EDF50E8B08B80E8A063
:100A70008B90020EDBCFE6FF0FEC0CF0E552010E7F
:100A8000DBCFE6FFFE0EDB50E552E714DF6EDF44FE
:100A9000010BDF6EDF50E8B08B80E8A08B90020E78
:100AA000DBCFE6FF0FEC0CF0E5528B80140EE66E08
:100AB0000FEC0CF0E552030EE15C02E2E16AE55254
:100AC000E16EE552E7CFD9FF1200D9CFE6FFE1CFC3
:100AD000D9FF020EE126DE6ADD6ADECF00F0DDCF4F
:100AE00001F0FB0EDBCF02F0FC0EDBCF03F0015078
:100AF0000318E8AE02D0033404D00250005C035067
:100B0000015815E2FD0EDBCF00F0FE0EDBCF01F049
:100B1000DE500024E96EDD500120EA6EEF50E66EF3
:100B2000EDDEE552DF2A010E01E3DB2AD6D70D0EFA
:100B3000E66EE4DEE552020EE15C02E2E16AE552B5
:100B4000E16EE552E7CFD9FF1200D9CFE6FFE1CF42
:100B5000D9FF130EE126D9CFE9FFDACFEAFF540E11
:100B6000EE6E650EEE6E6E0EEE6E740EEE6E610E35
:100B7000EE6E740EEE6E690EEE6E760EEE6E610E19
:100B8000EE6E200EEE6E640EEE6E650EEE6E200EB4
:100B9000EE6E6C0EEE6E6F0EEE6E670EEE6E690E02
:100BA000EE6E6E0EEE6EEE6A120EE66EE66AD9CF4D
:100BB000E6FFDACFE6FF89DFE552E552E552E5527E
:100BC000130EE15C02E2E16AE552E16EE552E7CF25
:100BD000D9FF1200D9CFE6FFE1CFD9FF1B0EE126E6
:100BE000D9CFE9FFDACFEAFF550EEE6E730EEE6E47
:100BF000750EEE6E610EEE6E720EEE6E690EEE6E9C
:100C00006F0EEE6E200EEE6E580EEE6E200EEE6E35
:100C1000630EEE6E6F0EEE6E6E0EEE6E730EEE6E79
:100C2000650EEE6E670EEE6E750EEE6E690EEE6E72
:100C3000750EEE6E200EEE6E610EEE6E630EEE6EB3
:100C4000650EEE6E730EEE6EEE6E6F0EEE6EEE6A6B
:100C5000FE0EDB50300FE76E080EE7CFDBFF1A0EFB
:100C6000E66EE66AD9CFE6FFDACFE6FF2EDFE55281
:100C7000E552E552E5521B0EE15C02E2E16AE55203
:100C8000E16EE552E7CFD9FF1200D9CFE6FFE1CF01
:100C9000D9FFFE0EDB504B0845E0FD0EDB040BE1F7
:100CA000FD0EDBCFE6FFFE0EDBCFE6FF42D8E552BE
:100CB000E5523BD037D0FD0EDB5002080CE0FD0EB4
:100CC000DB50040808E0FD0EDB50050804E0FD0ED3
:100CD000DB5006080EE1FD0EDBCFE6FF010EE66EEF
:100CE000FE0EDBCFE6FF66D8E552E552E5521DD099
:100CF00019D0FD0EDB50030805E14BEC01F0010EAD
:100D000014D010D0FD0EDB5007080CE1FD0EDBCF38
:100D1000E6FFE66AFE0EDBCFE6FF4CD8E552E55271
:100D2000E55203D0FD0EDB5000D0E552E7CFD9FFEE
:100D30001200D9CFE6FFE1CFD9FFFE0EDB50030A48
:100D40002FE0010A18E0030A03E0FD0EDB502ED06D
:100D5000C9D9F3CF00F0F4CF01F00050011007E043
:100D60000101006BC0EC01F0040E20D004D0A8EC0F
:100D700002F0030E1BD0010E0101E76E0119E8AE6F
:100D800002D0013503D0E750D880015506E2006B50
:100D9000C0EC01F0060E0AD003D05ADC030E06D0D8
:100DA0000101006BC0EC01F0020E00D0E552E7CF6C
:100DB000D9FF1200D9CFE6FFE1CFD9FF030EE1261C
:100DC000FE0EDB502A0801E1D3D0FE0EDB502308D3
:100DD0003EE0C7EC00F0DE6ADD6ADECF00F0DDCF7A
:100DE00001F000C102F0036A02BE0368015003185B
:100DF000E8AE02D0033404D00250005C0350015826
:100E000007E2CCEC00F0DF2A010E01E3DB2AE5D794
:100E1000FD0EDB5006E02A0EE66EB5EC00F0E55262
:100E200007D0FE0EDB50300FE66EB5EC00F0E55259
:100E300000C1E9FFEA6AE9BEEA68BD0EE926010ED3
:100E4000EA22FE0EDBCFEFFF0101002B91D0010162
:100E5000005103E1FC0EDB508ED000C1E9FFEA6ACD
:100E6000E9BEEA68BD0EE926010EEA22EF6AFC0E31
:100E7000DB50050818E0FC0EDB50070814E0BD0E3F
:100E8000E66E010EE66E83D8E552E552E76E020E7D
:100E9000E7CFDBFFDBCF00F0003405E311EC01F01E
:100EA00054DE030E68D0FC0EDB5002080AE1D1ECE0
:100EB00000F0020EDBCFE6FF8DDEE552030E5BD0C5
:100EC00057D0FC0EDB5004080FE1020EDB5007E1A7
:100ED0000101006B00EC02F0050E4DD049D011EC81
:100EE00001F033DE030E47D0FC0EDB5005080CE1A9
:100EF000A0D8020EF3CFDBFFDBCFE6FF43EC02F01E
:100F0000E552030E38D034D0FC0EDB5006080FE15A
:100F1000020EDB5007E10101006BE5EC02F0070E69
:100F20002AD026D011EC01F010DE030E24D0FC0EE6
:100F3000DB5007081DE15AD9020EF3CFDBFFDB506F
:100F400005E167EC03F0030E16D012D0020EDBCFE2
:100F5000E6FFFCD8E552000907E0020EDBCFE6FF12
:100F6000AAEC03F0E55202D067EC03F0030E03D0C5
:100F7000FC0EDB5000D0006E030EE15C02E2E16A81
:100F8000E552E16E0050E552E7CFD9FF1200D9CF0C
:100F9000E6FFE1CFD9FF020EE126DE6ADD6ADECF91
:100FA00000F0DDCF01F001C102F0036A02BE036868
:100FB00001500318E8AE02D0033404D00250005CA4
:100FC0000350015828E2BD0EE66E010EE66EDECF3C
:100FD00000F0DDCF01F0110E0102F3CF01F00002AD
:100FE000F3CF00F0F4500126020E0026010E01227C
:100FF00000C0E6FF01C0E6FF89EC0BF0E552E552C8
:10100000E552E552000902E1DF5007D0DF2A010E68
:1010100001E3DB2AC4D7FF0E00D0006E020EE15CB4
:1010200002E2E16AE552E16E0050E552E7CFD9FFF6
:101030001200D9CFE6FFE1CFD9FFE652DF6ADFCF5A
:1010400000F00B0EE76E0018E8AE02D0E73402D0D5
:10105000E750005C16E2DFCFE9FFEA6AE9BEEA6822
:10106000110EEA02F3CFEAFFE902F3CFE9FFF450F1
:10107000EA26020EE926010EEA22EF5002E0DF2AFC
:10108000DED7BD0EE66E010EE66EDFCF00F0016A20
:1010900000BE0168110E0102F3CF01F00002F3CF90
:1010A00000F0F4500126020E0026010E012200C0BD
:1010B000E6FF01C0E6FFA9EC0BF0E552E552E55270
:1010C000E5520101012BDFCF00F0016A00BE01688B
:1010D00000C0F3FF01C0F4FF00D0E552E552E7CFB6
:1010E000D9FF1200D9CFE6FFE1CFD9FFE652DF6A80
:1010F000DFCF00F00B0EE76E0018E8AE02D0E73449
:1011000002D0E750005C1AE2DFCFE9FFEA6AE9BEED
:10111000EA68110EEA02F3CFEAFFE902F3CFE9FF32
:10112000F450EA26020EE926010EEA22EF5004E10D
:10113000010EF36EF46A05D0DF2ADAD7F36AF46A97
:1011400000D0E552E552E7CFD9FF1200D9CFE6FF34
:10115000E1CFD9FFFE0EDBCF00F0000EE76E0018E6
:10116000E8AE02D0003403D0E750D880005438E213
:10117000FE0EDBCF01F00B0EE76E0118E8AE02D0D9
:10118000E73402D0E750015C2BE2FE0EDBCFE9FF33
:10119000EA6AE9BEEA68110EEA02F3CFEAFFE90261
:1011A000F3CFE9FFF450EA26020EE926010EEA2207
:1011B000EF5016E0FE0EDBCFE9FFEA6AE9BEEA680F
:1011C000110EEA02F3CFEAFFE902F3CFE9FFF45090
:1011D000EA26020EE926010EEA22EF6A010E02D08B
:1011E000000E00D0E552E7CFD9FF1200D9CFE6FFBD
:1011F000E1CFD9FFE65200C1E9FFEA6AE9BEEA6839
:10120000BD0EE926010EEA22EF6ADF6ADFCF00F0A9
:1012100001010051E76E0018E8AE02D0E73402D0B9
:10122000E750005C1AE2DFCFE9FFEA6AE9BEEA684C
:10123000BD0EE926010EEA22EF50300FE66EDFCF39
:10124000E9FFEA6AE9BEEA68BD0EE926010EEA2274
:10125000E552E750EF6EDF2AD9D7BD0EE66E010EDC
:10126000E66EC5EC0AF0E552E55200D0E552E552D3
:10127000E7CFD9FF120089928982020EE66E0FEC49
:101280000CF0E5528992020EE66E0FEC0CF0E5527E
:101290001200D9CFE6FFE1CFD9FF030EE126DE52DF
:1012A000800EDD6E9294010EDBCFE6FFFE0EDB506A
:1012B000800DF350E552E714E76E020EE7CFDBFF37
:1012C000DB44010BE8B08084E8A08094D4DF010EF9
:1012D000DBCFE6FFFE0EDB50400DF350E552E71486
:1012E000E76E020EE7CFDBFFDB44010BE8B0808442
:1012F000E8A08094C0DF010EDBCFE6FFFE0EDB50DE
:10130000200DF350E552E714E76E020EE7CFDBFF46
:10131000DB44010BE8B08084E8A08094ACDF010ED0
:10132000DBCFE6FFFE0EDB38F00BE552E714E76E8D
:10133000020EE7CFDBFFDB44010BE8B08084E8A0BE
:10134000809499DF010EDBCFE6FFFE0EDB50080D27
:10135000F350E552E714E76E020EE7CFDBFFDB4404
:10136000010BE8B08084E8A0809485DF010EDBCF1C
:10137000E6FFFE0EDB50040DF350E552E714E76E76
:10138000020EE7CFDBFFDB44010BE8B08084E8A06E
:10139000809471DF010EDBCFE6FFFE0EDB50E82408
:1013A000E552E714E76E020EE7CFDBFFDB44010BEB
:1013B000E8B08084E8A080945EDF010EDBCFE6FF1A
:1013C000FE0EDB50E552E714E76E020EE7CFDBFFBF
:1013D000DB44010BE8B08084E8A080944CDF030E6E
:1013E000E15C02E2E16AE552E16EE552E7CFD9FF46
:1013F0001200D9CFE6FFE1CFD9FF89928980FE0E96
:10140000DBCFE6FF46DFE552FD0EDBCFE6FF41DF37
:10141000E5528990E552E7CFD9FF1200D9CFE6FF18
:10142000E1CFD9FF0A0EE126DF6889928980FE0E9E
:10143000DBCFE6FF2EDFE55292848050040B01E003
:10144000010EE76E080EE7CFDBFF15DF8050040BBF
:1014500001E0010EE76E070EE7CFDBFF0CDF8050E7
:10146000040B01E0010EE76E060EE7CFDBFF03DFA2
:101470008050040B01E0010EE76E050EE7CFDBFFA5
:10148000FADE8050040B01E0010EE76E040EE7CF98
:10149000DBFFF1DE8050040B01E0010EE76E030E6E
:1014A000E7CFDBFFE8DE8050040B01E0010EE76EC2
:1014B000020EE7CFDBFFDFDE8050040B01E0010E00
:1014C000E76E010EE7CFDBFFD6DE89900A0EE15C06
:1014D00002E2E16AE552E16EE552E7CFD9FF120080
:1014E000E66A830EE66E85DFE552E552E66A800E17
:1014F000E66E7FDFE552E552C80EE66ECAEC0BF0F1
:10150000E552C80EE66ECAEC0BF0E552C80EE66E68
:10151000CAEC0BF0E55212000F0EC16E926A956A8A
:10152000F80E966E0F0E936E946A89901200D9CFC2
:10153000E6FFE1CFD9FF020EE126DE52010EDD6E9D
:10154000EBDF5DEC00F04BEC01F0CADF870EE66EDE
:1015500065DFE5520BEC04F0DF6E010EDBCFE6FF3A
:10156000DFCFE6FF45EC06F0E552E552E76E010EEF
:10157000E7CFDBFFEFD7020EE15C02E2E16AE55262
:0A158000E16EE552E7CFD9FF12003B
:06158A00FF0EE3CFEAFFB3
:10159000E552FF0EE3CFE9FFE552E66AE66AD9CFEE
:1015A000E6FFDACFE6FFFC0EE124D96EFF0EE22063
:1015B000DA6EE66AE66AE66A200EEF5C06E0090E7D
:1015C000EF5C03E0EF6603D03FD0EE50F5D72D0E71
:1015D000EF5C03E1FF0EE32A03D02B0EEF5C01E189
:1015E000EE502F0EEF6424D03A0EEF6021D0D89049
:1015F000F90EE336FA0EE336FD0EDECFE3FFFE0E04
:10160000DDCFE3FFD890F90EE336FA0EE336D8903B
:10161000F90EE336FA0EE336FD0EE350DE26FE0E3B
:10162000E350DD22300EEE5CDE26000EDD22D9D73F
:10163000FF0EE3CFE8FFE85207E0F90EE31EE32ACE
:10164000FA0ED8B4E306E31EE552E552E552FF0E6A
:10165000E3CFDAFFE552FF0EE3CFD9FFE552E1CF4A
:10166000E9FFE2CFEAFFED52ED52EECFF3FFEFCF0D
:04167000F4FF120071
:0C167400060EF66E000EF76E000EF86E0B
:1016800001010900F550D26F0900F550D36F03E155
:10169000D26701D03DD00900F550CD6F0900F5505B
:1016A000CE6F0900F550CF6F09000900F550E96EC3
:1016B0000900F550EA6E090009000900F550D06FE5
:1016C0000900F550D16F09000900F6CFD4F1F7CF2A
:1016D000D5F1F8CFD6F1CDC1F6FFCEC1F7FFCFC11E
:1016E000F8FF0101D05302E1D15307E00900F550A2
:1016F000EE6ED007F8E2D107F9D7D4C1F6FFD5C115
:10170000F7FFD6C1F8FF0101D207000ED35BBFD7A8
:021710001200C5
:0E171200D9CFE6FFDACFE6FFFA0EE3CFD9FF1C
:10172000FB0EE3CFDAFFFC0EE3CFE9FFFD0EE3CFC4
:10173000EAFFDE50EF5C02E1EE66FBD7F36EFF0ED0
:10174000E3CFDAFFE552FF0EE3CFD9FFE552F350C6
:101750001200D9CFE6FFDACFE6FFFA0EE3CFD9FFCA
:10176000FB0EE3CFDAFFFC0EE3CFE9FFFD0EE3CF84
:10177000EAFFE9CFF3FFEACFF4FFDECFEFFFEE663B
:10178000FCD7FF0EE3CFDAFFE552FF0EE3CFD9FF20
:04179000E55212000C
:0C179400FF0EE350076EEF0E01D0F30EC5
:1017A000E76EE72ED1EF0BF00C0E066EE76AE72E20
:1017B000D7EF0BF0062ED6EF0BF0072ECFEF0BF086
:0217C000120015
:0E17C200FF0EE350076E480E01D04C0EE76E8E
:1017D000E72EFED7E76AE72EFED7072EF7D70000E1
:0217E0001200F5
:0E17E200000EF36E00EE00F0080E01D81200AB
:1017F000EA6002D0EE6AFCD7F350E9601200EE6AAC
:02180000FCD713
:0E18020013EE00F023EE00F0F86A059C3AECBD
:0E1810000BF01AEC0CF097EC0AF0FBD712006C
:02181E00FF0EBB
:10182000E350E84E1200000000D000D000D0E82EB7
:04183000FAD71200D1
:021834001200A0
:0A1836000001010203040506000092
:101840000000000000000000000000000000000098
:101850000000000000000000000000000000000088
:101860000000000000000000000000000000000078
:101870000000000000000000000000000000000068
:101880000000000000000000000000000000000058
:101890000000000000000000000000000000000048
:1018A0000000000000000000000000000000000038
:1018B0000000000000000000000000000000000028
:1018C0000000000000000000000000000000000018
:1018D0000000000000000000000000000000000008
:1018E00000000000000000000000000000000000F8
:0318F000000000F5
:020000040030CA
:010001000CF2
:010003001EDE
:0100050001F9
:00000001FF
